{
  "_format": "hh-sol-artifact-1",
  "contractName": "VeltisIPNFT",
  "sourceName": "contracts/VeltisIPNFT.sol",
  "abi": [
    {
      "inputs": [
        {
          "internalType": "string",
          "name": "name",
          "type": "string"
        },
        {
          "internalType": "string",
          "name": "symbol",
          "type": "string"
        }
      ],
      "stateMutability": "nonpayable",
      "type": "constructor"
    },
    {
      "inputs": [
        {
          "internalType": "address",
          "name": "sender",
          "type": "address"
        },
        {
          "internalType": "uint256",
          "name": "tokenId",
          "type": "uint256"
        },
        {
          "internalType": "address",
          "name": "owner",
          "type": "address"
        }
      ],
      "name": "ERC721IncorrectOwner",
      "type": "error"
    },
    {
      "inputs": [
        {
          "internalType": "address",
          "name": "operator",
          "type": "address"
        },
        {
          "internalType": "uint256",
          "name": "tokenId",
          "type": "uint256"
        }
      ],
      "name": "ERC721InsufficientApproval",
      "type": "error"
    },
    {
      "inputs": [
        {
          "internalType": "address",
          "name": "approver",
          "type": "address"
        }
      ],
      "name": "ERC721InvalidApprover",
      "type": "error"
    },
    {
      "inputs": [
        {
          "internalType": "address",
          "name": "operator",
          "type": "address"
        }
      ],
      "name": "ERC721InvalidOperator",
      "type": "error"
    },
    {
      "inputs": [
        {
          "internalType": "address",
          "name": "owner",
          "type": "address"
        }
      ],
      "name": "ERC721InvalidOwner",
      "type": "error"
    },
    {
      "inputs": [
        {
          "internalType": "address",
          "name": "receiver",
          "type": "address"
        }
      ],
      "name": "ERC721InvalidReceiver",
      "type": "error"
    },
    {
      "inputs": [
        {
          "internalType": "address",
          "name": "sender",
          "type": "address"
        }
      ],
      "name": "ERC721InvalidSender",
      "type": "error"
    },
    {
      "inputs": [
        {
          "internalType": "uint256",
          "name": "tokenId",
          "type": "uint256"
        }
      ],
      "name": "ERC721NonexistentToken",
      "type": "error"
    },
    {
      "anonymous": false,
      "inputs": [
        {
          "indexed": true,
          "internalType": "address",
          "name": "owner",
          "type": "address"
        },
        {
          "indexed": true,
          "internalType": "address",
          "name": "approved",
          "type": "address"
        },
        {
          "indexed": true,
          "internalType": "uint256",
          "name": "tokenId",
          "type": "uint256"
        }
      ],
      "name": "Approval",
      "type": "event"
    },
    {
      "anonymous": false,
      "inputs": [
        {
          "indexed": true,
          "internalType": "address",
          "name": "owner",
          "type": "address"
        },
        {
          "indexed": true,
          "internalType": "address",
          "name": "operator",
          "type": "address"
        },
        {
          "indexed": false,
          "internalType": "bool",
          "name": "approved",
          "type": "bool"
        }
      ],
      "name": "ApprovalForAll",
      "type": "event"
    },
    {
      "anonymous": false,
      "inputs": [
        {
          "indexed": false,
          "internalType": "uint256",
          "name": "_fromTokenId",
          "type": "uint256"
        },
        {
          "indexed": false,
          "internalType": "uint256",
          "name": "_toTokenId",
          "type": "uint256"
        }
      ],
      "name": "BatchMetadataUpdate",
      "type": "event"
    },
    {
      "anonymous": false,
      "inputs": [
        {
          "indexed": false,
          "internalType": "uint256",
          "name": "_tokenId",
          "type": "uint256"
        }
      ],
      "name": "MetadataUpdate",
      "type": "event"
    },
    {
      "anonymous": false,
      "inputs": [
        {
          "indexed": true,
          "internalType": "address",
          "name": "from",
          "type": "address"
        },
        {
          "indexed": true,
          "internalType": "address",
          "name": "to",
          "type": "address"
        },
        {
          "indexed": true,
          "internalType": "uint256",
          "name": "tokenId",
          "type": "uint256"
        }
      ],
      "name": "Transfer",
      "type": "event"
    },
    {
      "inputs": [
        {
          "internalType": "address",
          "name": "to",
          "type": "address"
        },
        {
          "internalType": "uint256",
          "name": "tokenId",
          "type": "uint256"
        }
      ],
      "name": "approve",
      "outputs": [],
      "stateMutability": "nonpayable",
      "type": "function"
    },
    {
      "inputs": [
        {
          "internalType": "address",
          "name": "owner",
          "type": "address"
        }
      ],
      "name": "balanceOf",
      "outputs": [
        {
          "internalType": "uint256",
          "name": "",
          "type": "uint256"
        }
      ],
      "stateMutability": "view",
      "type": "function"
    },
    {
      "inputs": [
        {
          "internalType": "uint256",
          "name": "tokenId",
          "type": "uint256"
        }
      ],
      "name": "burn",
      "outputs": [],
      "stateMutability": "nonpayable",
      "type": "function"
    },
    {
      "inputs": [
        {
          "internalType": "uint256",
          "name": "tokenId",
          "type": "uint256"
        }
      ],
      "name": "getApproved",
      "outputs": [
        {
          "internalType": "address",
          "name": "",
          "type": "address"
        }
      ],
      "stateMutability": "view",
      "type": "function"
    },
    {
      "inputs": [
        {
          "internalType": "address",
          "name": "owner",
          "type": "address"
        },
        {
          "internalType": "address",
          "name": "operator",
          "type": "address"
        }
      ],
      "name": "isApprovedForAll",
      "outputs": [
        {
          "internalType": "bool",
          "name": "",
          "type": "bool"
        }
      ],
      "stateMutability": "view",
      "type": "function"
    },
    {
      "inputs": [],
      "name": "name",
      "outputs": [
        {
          "internalType": "string",
          "name": "",
          "type": "string"
        }
      ],
      "stateMutability": "view",
      "type": "function"
    },
    {
      "inputs": [
        {
          "internalType": "uint256",
          "name": "tokenId",
          "type": "uint256"
        }
      ],
      "name": "ownerOf",
      "outputs": [
        {
          "internalType": "address",
          "name": "",
          "type": "address"
        }
      ],
      "stateMutability": "view",
      "type": "function"
    },
    {
      "inputs": [
        {
          "internalType": "address",
          "name": "to",
          "type": "address"
        },
        {
          "internalType": "string",
          "name": "uri",
          "type": "string"
        }
      ],
      "name": "safeMint",
      "outputs": [
        {
          "internalType": "uint256",
          "name": "",
          "type": "uint256"
        }
      ],
      "stateMutability": "nonpayable",
      "type": "function"
    },
    {
      "inputs": [
        {
          "internalType": "address",
          "name": "from",
          "type": "address"
        },
        {
          "internalType": "address",
          "name": "to",
          "type": "address"
        },
        {
          "internalType": "uint256",
          "name": "tokenId",
          "type": "uint256"
        }
      ],
      "name": "safeTransferFrom",
      "outputs": [],
      "stateMutability": "nonpayable",
      "type": "function"
    },
    {
      "inputs": [
        {
          "internalType": "address",
          "name": "from",
          "type": "address"
        },
        {
          "internalType": "address",
          "name": "to",
          "type": "address"
        },
        {
          "internalType": "uint256",
          "name": "tokenId",
          "type": "uint256"
        },
        {
          "internalType": "bytes",
          "name": "data",
          "type": "bytes"
        }
      ],
      "name": "safeTransferFrom",
      "outputs": [],
      "stateMutability": "nonpayable",
      "type": "function"
    },
    {
      "inputs": [
        {
          "internalType": "address",
          "name": "operator",
          "type": "address"
        },
        {
          "internalType": "bool",
          "name": "approved",
          "type": "bool"
        }
      ],
      "name": "setApprovalForAll",
      "outputs": [],
      "stateMutability": "nonpayable",
      "type": "function"
    },
    {
      "inputs": [
        {
          "internalType": "bytes4",
          "name": "interfaceId",
          "type": "bytes4"
        }
      ],
      "name": "supportsInterface",
      "outputs": [
        {
          "internalType": "bool",
          "name": "",
          "type": "bool"
        }
      ],
      "stateMutability": "view",
      "type": "function"
    },
    {
      "inputs": [],
      "name": "symbol",
      "outputs": [
        {
          "internalType": "string",
          "name": "",
          "type": "string"
        }
      ],
      "stateMutability": "view",
      "type": "function"
    },
    {
      "inputs": [
        {
          "internalType": "uint256",
          "name": "tokenId",
          "type": "uint256"
        }
      ],
      "name": "tokenURI",
      "outputs": [
        {
          "internalType": "string",
          "name": "",
          "type": "string"
        }
      ],
      "stateMutability": "view",
      "type": "function"
    },
    {
      "inputs": [
        {
          "internalType": "address",
          "name": "from",
          "type": "address"
        },
        {
          "internalType": "address",
          "name": "to",
          "type": "address"
        },
        {
          "internalType": "uint256",
          "name": "tokenId",
          "type": "uint256"
        }
      ],
      "name": "transferFrom",
      "outputs": [],
      "stateMutability": "nonpayable",
      "type": "function"
    }
  ],
  "bytecode": "0x608060405234801561001057600080fd5b5060405161161638038061161683398101604081905261002f9161010d565b8181600061003d83826101ff565b50600161004a82826101ff565b50505050506102bd565b634e487b7160e01b600052604160045260246000fd5b600082601f83011261007b57600080fd5b81516001600160401b0381111561009457610094610054565b604051601f8201601f19908116603f011681016001600160401b03811182821017156100c2576100c2610054565b6040528181528382016020018510156100da57600080fd5b60005b828110156100f9576020818601810151838301820152016100dd565b506000918101602001919091529392505050565b6000806040838503121561012057600080fd5b82516001600160401b0381111561013657600080fd5b6101428582860161006a565b602085015190935090506001600160401b0381111561016057600080fd5b61016c8582860161006a565b9150509250929050565b600181811c9082168061018a57607f821691505b6020821081036101aa57634e487b7160e01b600052602260045260246000fd5b50919050565b601f8211156101fa57806000526020600020601f840160051c810160208510156101d75750805b601f840160051c820191505b818110156101f757600081556001016101e3565b50505b505050565b81516001600160401b0381111561021857610218610054565b61022c816102268454610176565b846101b0565b6020601f82116001811461026057600083156102485750848201515b600019600385901b1c1916600184901b1784556101f7565b600084815260208120601f198516915b828110156102905787850151825560209485019460019092019101610270565b50848210156102ae5786840151600019600387901b60f8161c191681555b50505050600190811b01905550565b61134a806102cc6000396000f3fe608060405234801561001057600080fd5b50600436106100f55760003560e01c80636352211e11610097578063b88d4fde11610066578063b88d4fde146101ff578063c87b56dd14610212578063d204c45e14610225578063e985e9c51461023857600080fd5b80636352211e146101b057806370a08231146101c357806395d89b41146101e4578063a22cb465146101ec57600080fd5b8063095ea7b3116100d3578063095ea7b31461016257806323b872dd1461017757806342842e0e1461018a57806342966c681461019d57600080fd5b806301ffc9a7146100fa57806306fdde0314610122578063081812fc14610137575b600080fd5b61010d610108366004610e10565b61024b565b60405190151581526020015b60405180910390f35b61012a61025c565b6040516101199190610e7d565b61014a610145366004610e90565b6102ee565b6040516001600160a01b039091168152602001610119565b610175610170366004610ec5565b610317565b005b610175610185366004610eef565b610326565b610175610198366004610eef565b6103b6565b6101756101ab366004610e90565b6103d6565b61014a6101be366004610e90565b6103e2565b6101d66101d1366004610f2c565b6103ed565b604051908152602001610119565b61012a610435565b6101756101fa366004610f47565b610444565b61017561020d366004611013565b61044f565b61012a610220366004610e90565b610467565b6101d661023336600461108f565b610472565b61010d6102463660046110f1565b6104a7565b6000610256826104d5565b92915050565b60606000805461026b90611124565b80601f016020809104026020016040519081016040528092919081815260200182805461029790611124565b80156102e45780601f106102b9576101008083540402835291602001916102e4565b820191906000526020600020905b8154815290600101906020018083116102c757829003601f168201915b5050505050905090565b60006102f9826104fa565b506000828152600460205260409020546001600160a01b0316610256565b610322828233610533565b5050565b6001600160a01b03821661035557604051633250574960e11b8152600060048201526024015b60405180910390fd5b6000610362838333610540565b9050836001600160a01b0316816001600160a01b0316146103b0576040516364283d7b60e01b81526001600160a01b038086166004830152602482018490528216604482015260640161034c565b50505050565b6103d18383836040518060200160405280600081525061044f565b505050565b61032260008233610540565b6000610256826104fa565b60006001600160a01b038216610419576040516322718ad960e21b81526000600482015260240161034c565b506001600160a01b031660009081526003602052604090205490565b60606001805461026b90611124565b610322338383610639565b61045a848484610326565b6103b033858585856106d8565b606061025682610803565b60078054600091829190826104868361115e565b9190505590506104968482610914565b6104a0818461092e565b9392505050565b6001600160a01b03918216600090815260056020908152604080832093909416825291909152205460ff1690565b60006001600160e01b03198216632483248360e11b148061025657506102568261097e565b6000818152600260205260408120546001600160a01b03168061025657604051637e27328960e01b81526004810184905260240161034c565b6103d183838360016109ce565b6000828152600260205260408120546001600160a01b039081169083161561056d5761056d818486610ad4565b6001600160a01b038116156105ab5761058a6000856000806109ce565b6001600160a01b038116600090815260036020526040902080546000190190555b6001600160a01b038516156105da576001600160a01b0385166000908152600360205260409020805460010190555b60008481526002602052604080822080546001600160a01b0319166001600160a01b0389811691821790925591518793918516917fddf252ad1be2c89b69c2b068fc378daa952ba7f163c4a11628f55a4df523b3ef91a4949350505050565b6001600160a01b03821661066b57604051630b61174360e31b81526001600160a01b038316600482015260240161034c565b6001600160a01b03838116600081815260056020908152604080832094871680845294825291829020805460ff191686151590811790915591519182527f17307eab39ab6107e8899845ad3d59bd9653f200f220920489ca2b5937696c31910160405180910390a3505050565b6001600160a01b0383163b156107fc57604051630a85bd0160e11b81526001600160a01b0384169063150b7a029061071a908890889087908790600401611185565b6020604051808303816000875af1925050508015610755575060408051601f3d908101601f19168201909252610752918101906111c2565b60015b6107be573d808015610783576040519150601f19603f3d011682016040523d82523d6000602084013e610788565b606091505b5080516000036107b657604051633250574960e11b81526001600160a01b038516600482015260240161034c565b805181602001fd5b6001600160e01b03198116630a85bd0160e11b146107fa57604051633250574960e11b81526001600160a01b038516600482015260240161034c565b505b5050505050565b606061080e826104fa565b506000828152600660205260408120805461082890611124565b80601f016020809104026020016040519081016040528092919081815260200182805461085490611124565b80156108a15780601f10610876576101008083540402835291602001916108a1565b820191906000526020600020905b81548152906001019060200180831161088457829003601f168201915b5050505050905060006108bf60408051602081019091526000815290565b905080516000036108d1575092915050565b8151156109035780826040516020016108eb9291906111df565b60405160208183030381529060405292505050919050565b61090c84610b38565b949350505050565b610322828260405180602001604052806000815250610bac565b60008281526006602052604090206109468282611255565b506040518281527ff8e1a15aba9398e019f0b49df1a4fde98ee17ae345cb5f6b5e2c27f5033e8ce79060200160405180910390a15050565b60006001600160e01b031982166380ac58cd60e01b14806109af57506001600160e01b03198216635b5e139f60e01b145b8061025657506301ffc9a760e01b6001600160e01b0319831614610256565b80806109e257506001600160a01b03821615155b15610aa45760006109f2846104fa565b90506001600160a01b03831615801590610a1e5750826001600160a01b0316816001600160a01b031614155b8015610a315750610a2f81846104a7565b155b15610a5a5760405163a9fbf51f60e01b81526001600160a01b038416600482015260240161034c565b8115610aa25783856001600160a01b0316826001600160a01b03167f8c5be1e5ebec7d5bd14f71427d1e84f3dd0314c0f7b2291e5b200ac8c7c3b92560405160405180910390a45b505b5050600090815260046020526040902080546001600160a01b0319166001600160a01b0392909216919091179055565b610adf838383610bc4565b6103d1576001600160a01b038316610b0d57604051637e27328960e01b81526004810182905260240161034c565b60405163177e802f60e01b81526001600160a01b03831660048201526024810182905260440161034c565b6060610b43826104fa565b506000610b5b60408051602081019091526000815290565b90506000815111610b7b57604051806020016040528060008152506104a0565b80610b8584610c27565b604051602001610b969291906111df565b6040516020818303038152906040529392505050565b610bb68383610cba565b6103d13360008585856106d8565b60006001600160a01b0383161580159061090c5750826001600160a01b0316846001600160a01b03161480610bfe5750610bfe84846104a7565b8061090c5750506000908152600460205260409020546001600160a01b03908116911614919050565b60606000610c3483610d1f565b600101905060008167ffffffffffffffff811115610c5457610c54610f83565b6040519080825280601f01601f191660200182016040528015610c7e576020820181803683370190505b5090508181016020015b600019016f181899199a1a9b1b9c1cb0b131b232b360811b600a86061a8153600a8504945084610c8857509392505050565b6001600160a01b038216610ce457604051633250574960e11b81526000600482015260240161034c565b6000610cf283836000610540565b90506001600160a01b038116156103d1576040516339e3563760e11b81526000600482015260240161034c565b60008072184f03e93ff9f4daa797ed6e38ed64bf6a1f0160401b8310610d5e5772184f03e93ff9f4daa797ed6e38ed64bf6a1f0160401b830492506040015b6d04ee2d6d415b85acef81000000008310610d8a576d04ee2d6d415b85acef8100000000830492506020015b662386f26fc100008310610da857662386f26fc10000830492506010015b6305f5e1008310610dc0576305f5e100830492506008015b6127108310610dd457612710830492506004015b60648310610de6576064830492506002015b600a83106102565760010192915050565b6001600160e01b031981168114610e0d57600080fd5b50565b600060208284031215610e2257600080fd5b81356104a081610df7565b60005b83811015610e48578181015183820152602001610e30565b50506000910152565b60008151808452610e69816020860160208601610e2d565b601f01601f19169290920160200192915050565b6020815260006104a06020830184610e51565b600060208284031215610ea257600080fd5b5035919050565b80356001600160a01b0381168114610ec057600080fd5b919050565b60008060408385031215610ed857600080fd5b610ee183610ea9565b946020939093013593505050565b600080600060608486031215610f0457600080fd5b610f0d84610ea9565b9250610f1b60208501610ea9565b929592945050506040919091013590565b600060208284031215610f3e57600080fd5b6104a082610ea9565b60008060408385031215610f5a57600080fd5b610f6383610ea9565b915060208301358015158114610f7857600080fd5b809150509250929050565b634e487b7160e01b600052604160045260246000fd5b60008067ffffffffffffffff841115610fb457610fb4610f83565b50604051601f19601f85018116603f0116810181811067ffffffffffffffff82111715610fe357610fe3610f83565b604052838152905080828401851015610ffb57600080fd5b83836020830137600060208583010152509392505050565b6000806000806080858703121561102957600080fd5b61103285610ea9565b935061104060208601610ea9565b925060408501359150606085013567ffffffffffffffff81111561106357600080fd5b8501601f8101871361107457600080fd5b61108387823560208401610f99565b91505092959194509250565b600080604083850312156110a257600080fd5b6110ab83610ea9565b9150602083013567ffffffffffffffff8111156110c757600080fd5b8301601f810185136110d857600080fd5b6110e785823560208401610f99565b9150509250929050565b6000806040838503121561110457600080fd5b61110d83610ea9565b915061111b60208401610ea9565b90509250929050565b600181811c9082168061113857607f821691505b60208210810361115857634e487b7160e01b600052602260045260246000fd5b50919050565b60006001820161117e57634e487b7160e01b600052601160045260246000fd5b5060010190565b6001600160a01b03858116825284166020820152604081018390526080606082018190526000906111b890830184610e51565b9695505050505050565b6000602082840312156111d457600080fd5b81516104a081610df7565b600083516111f1818460208801610e2d565b835190830190611205818360208801610e2d565b01949350505050565b601f8211156103d157806000526020600020601f840160051c810160208510156112355750805b601f840160051c820191505b818110156107fc5760008155600101611241565b815167ffffffffffffffff81111561126f5761126f610f83565b6112838161127d8454611124565b8461120e565b6020601f8211600181146112b7576000831561129f5750848201515b600019600385901b1c1916600184901b1784556107fc565b600084815260208120601f198516915b828110156112e757878501518255602094850194600190920191016112c7565b50848210156113055786840151600019600387901b60f8161c191681555b50505050600190811b0190555056fea26469706673582212207bb4be460eab716829e547d7b357facaa1034cbc8626c8f39b79e27901ea7dec64736f6c634300081c0033",
  "linkReferences": {},
  "deployedLinkReferences": {}
}